:100000000C9435000C945D000C945D000C945D0024
:100010000C945D000C945D000C945D000C945D00EC
:100020000C945D000C945D000C945D000C945D00DC
:100030000C945D000C945D000C945D000C945D00CC
:100040000C94C4020C945D000C9434030C940E03C5
:100050000C945D000C945D000C945D000C945D00AC
:100060000C945D000C945D00660311241FBECFEF5D
:10007000D8E0DEBFCDBF11E0A0E0B1E0ECE5FDE0EF
:1000800002C005900D92AA32B107D9F721E0AAE289
:10009000B1E001C01D92AC3DB207E1F710E0C5E34D
:1000A000D0E004C02197FE010E94A606C433D10708
:1000B000C9F70E94A5030C94AC060C940000AF9203
:1000C000BF92CF92DF92EF92FF920F931F93CF9345
:1000D000DF936C017B018B01040F151FEB015E01A7
:1000E000AE18BF08C017D10759F06991D601ED913C
:1000F000FC910190F081E02DC6010995892B79F7DB
:10010000C501DF91CF911F910F91FF90EF90DF908C
:10011000CF90BF90AF900895FC01538D448D252F53
:1001200030E0842F90E0821B930B541710F0CF9691
:10013000089501970895FC01918D828D981761F0C3
:10014000A28DAE0FBF2FB11D5D968C91928D9F5FDA
:100150009F73928F90E008958FEF9FEF0895FC01B9
:10016000918D828D981731F0828DE80FF11D858D6C
:1001700090E008958FEF9FEF0895FC01918D228DFF
:10018000892F90E0805C9F4F821B91098F73992784
:10019000089583E391E00E94BD0021E0892B09F4DA
:1001A00020E0822F089580E090E0892B29F00E94C2
:1001B000C90081110C9400000895FC01A48DA80FC2
:1001C000B92FB11DA35ABF4F2C91848D90E0019699
:1001D0008F739927848FA689B7892C93A089B189B9
:1001E0008C91837080648C93938D848D981306C05A
:1001F0000288F389E02D80818F7D80830895EF92BE
:10020000FF920F931F93CF93DF93EC0181E0888FD0
:100210009B8D8C8D98131AC0E889F989808185FFA0
:1002200015C09FB7F894EE89FF896083E889F98942
:1002300080818370806480839FBF81E090E0DF9144
:10024000CF911F910F91FF90EF900895F62E0B8D97
:1002500010E00F5F1F4F0F731127E02E8C8D8E1152
:100260000CC00FB607FCFACFE889F989808185FFB9
:10027000F5CFCE010E94DD00F1CFEB8DEC0FFD2F0D
:10028000F11DE35AFF4FF0829FB7F8940B8FEA8974
:10029000FB8980818062CFCFCF93DF93EC01888D83
:1002A0008823B9F0AA89BB89E889F9898C9185FDF1
:1002B00003C0808186FD0DC00FB607FCF7CF8C917F
:1002C00085FFF2CF808185FFEDCFCE010E94DD005A
:1002D000E9CFDF91CF910895FC0101900020E9F76B
:1002E0003197AF01481B590BBC0183E391E00C949B
:1002F0005F008F929F92AF92BF920F931F93CF9305
:10030000DF93CDB7DEB7A1970FB6F894DEBF0FBE6F
:10031000CDBF19A2423008F44AE08E010F5D1F4F95
:10032000842E912CB12CA12CA50194010E9484064D
:10033000E62FB901CA01EA30F4F4E05DD801EE938A
:100340008D01232B242B252B79F790E080E010974B
:1003500019F0CD010E946C01A1960FB6F894DEBF92
:100360000FBECDBFDF91CF911F910F91BF90AF9086
:100370009F908F900895E95CE1CF4F925F926F92CA
:100380007F928F929F92AF92BF92CF92DF92EF9225
:10039000FF920F931F93CF936B017C01742EAC01DE
:1003A0009B010E947F06882399F082E191E0CF9122
:1003B0001F910F91FF90EF90DF90CF90BF90AF9083
:1003C0009F908F907F906F905F904F900C946C01F6
:1003D00046015701E894B7F82FEF3FEF4FE75FE78B
:1003E000C501B4010E947F0681110DC02FEF3FEFC0
:1003F0004FE75FE7C501B4010E94B50418161CF46D
:1004000086E191E0D4CF2FEF3FEF4FE75FE4C701E4
:10041000B6010E940D0618161CF48AE191E0C7CFC0
:100420002FEF3FEF4FE75FECC701B6010E94B50425
:1004300087FDF3CF20E030E0A901C701B6010E949B
:10044000B50410E000E087FF0AC06DE283E391E0AD
:100450000E94FF008C01F7FAF094F7F8F094C0E0E6
:1004600060E070E080E09FE37C1641F020E030E047
:1004700040E251E40E94BA04CF5FF6CFA701960193
:100480000E9449042B013C010E942C054B015C0198
:100490004AE00E9479017C01E00EF11ECC23C1F1FB
:1004A000C501B4010E945B059B01AC01C301B2010F
:1004B0000E9448044B015C016EE283E391E00E94DC
:1004C000FF00E80EF91EC15018F120E030E040E2D4
:1004D00051E4C501B4010E9412062B013C010E94A7
:1004E0002C054B01B12CA12C4AE0C501B4010E949E
:1004F0007901E80EF91EC501B4010E945B059B015C
:10050000AC01C301B2010E9448044B015C01DBCF86
:10051000C701CF911F910F91FF90EF90DF90CF9087
:10052000BF90AF909F908F907F906F905F904F9013
:100530000895CF93DF938EE191E00E946C01C0EDAE
:10054000D1E0688179818A819B8142E00E94BD016E
:1005500080E291E00E946C016C817D818E819F819F
:1005600042E00E94BD0183E291E00E946C01688537
:1005700079858A859B8542E00E94BD0186E291E0F3
:10058000DF91CF910C946C011F920F920FB60F92D6
:1005900011242F933F938F939F93AF93BF93809199
:1005A0002F0190913001A0913101B0913201309131
:1005B0002E0123E0230F2D3758F50196A11DB11D03
:1005C00020932E0180932F0190933001A09331014D
:1005D000B093320180912A0190912B01A0912C01BE
:1005E000B0912D010196A11DB11D80932A01909318
:1005F0002B01A0932C01B0932D01BF91AF919F913E
:100600008F913F912F910F900FBE0F901F901895D3
:1006100026E8230F0296A11DB11DD2CF1F920F9283
:100620000FB60F9211242F933F934F935F936F93C5
:100630007F938F939F93AF93BF93EF93FF9383E346
:1006400091E00E94DD00FF91EF91BF91AF919F91EA
:100650008F917F916F915F914F913F912F910F906B
:100660000FBE0F901F9018951F920F920FB60F920A
:1006700011242F938F939F93EF93FF93E091430166
:10068000F09144018081E0914901F0914A0182FD9D
:100690001BC0908180914C018F5F8F7320914D0121
:1006A000821741F0E0914C01F0E0ED5CFE4F958F38
:1006B00080934C01FF91EF919F918F912F910F901B
:1006C0000FBE0F901F9018958081F4CFE3E3F1E007
:1006D0001382128288EE93E0A0E0B0E084839583D9
:1006E000A683B78384E091E09183808385EC90E0DA
:1006F0009587848784EC90E09787868780EC90E0EC
:10070000918B808B81EC90E0938B828B82EC90E0DC
:10071000958B848B86EC90E0978B868B118E128E56
:10072000138E148EE0EDF1E080E090E0A0E8BFE3EE
:1007300080839183A283B38384839583A683B783C5
:1007400080879187A287B3870895789484B5826063
:1007500084BD84B5816084BD85B5826085BD85B565
:10076000816085BD80916E00816080936E001092E3
:10077000810080918100826080938100809181005E
:1007800081608093810080918000816080938000EF
:100790008091B10084608093B1008091B00081604D
:1007A0008093B00080917A00846080937A00809179
:1007B0007A00826080937A0080917A0081608093D1
:1007C0007A0080917A00806880937A001092C1004C
:1007D000E0914301F091440182E08083E0913F0188
:1007E000F09140011082E0914101F091420180E1DD
:1007F000808310924B01E0914701F091480186E01F
:100800008083E0914501F091460180818061808381
:10081000E0914501F0914601808188608083E091FC
:100820004501F0914601808180688083E091450117
:10083000F091460180818F7D80830E949902109201
:10084000D0011092D1011092D2011092D30180E018
:1008500090E0A0EAB0E48093D4019093D501A093F6
:10086000D601B093D7011092D8011092D9011092FD
:10087000DA011092DB010E949902C0E0D0E02097DB
:10088000F1F30E94C9008823D1F30E940000F7CF42
:100890005058BB27AA270E9460040C94D3050E94DD
:1008A000C50538F00E94CC0520F039F49F3F19F4BB
:1008B00026F40C94C2050EF4E095E7FB0C94BC05FD
:1008C000E92F0E94E40558F3BA17620773078407FB
:1008D000950720F079F4A6F50C9406060EF4E09541
:1008E0000B2EBA2FA02D0B01B90190010C01CA01EA
:1008F000A0011124FF27591B99F0593F50F4503E95
:1009000068F11A16F040A22F232F342F4427585F86
:10091000F3CF469537952795A795F0405395C9F79E
:100920007EF41F16BA0B620B730B840BBAF0915056
:10093000A1F0FF0FBB1F661F771F881FC2F70EC0F5
:10094000BA0F621F731F841F48F4879577956795C8
:10095000B795F7959E3F08F0B0CF9395880F08F0B4
:100960009927EE0F9795879508950E94980508F4AA
:1009700081E008950E94CE040C94D3050E94CC051A
:1009800058F00E94C50540F029F45F3F29F00C940F
:10099000BC0551110C9407060C94C2050E94E40595
:1009A00068F39923B1F3552391F3951B550BBB279E
:1009B000AA2762177307840738F09F5F5F4F220FE3
:1009C000331F441FAA1FA9F335D00E2E3AF0E0E8DA
:1009D00032D091505040E695001CCAF72BD0FE2F24
:1009E00029D0660F771F881FBB1F261737074807B8
:1009F000AB07B0E809F0BB0B802DBF01FF27935870
:100A00005F4F3AF09E3F510578F00C94BC050C9472
:100A100007065F3FE4F3983ED4F386957795679594
:100A2000B795F7959F5FC9F7880F911D96958795A4
:100A300097F90895E1E0660F771F881FBB1F6217C3
:100A400073078407BA0720F0621B730B840BBA0B81
:100A5000EE1F88F7E09508950E94EC0588F09F57F7
:100A600098F0B92F9927B751B0F0E1F0660F771FD2
:100A7000881F991F1AF0BA95C9F714C0B13091F0C8
:100A80000E940606B1E008950C940606672F782FA1
:100A90008827B85F39F0B93FCCF38695779567958D
:100AA000B395D9F73EF490958095709561957F4FF9
:100AB0008F4F9F4F0895E89409C097FB3EF490959F
:100AC0008095709561957F4F8F4F9F4F9923A9F027
:100AD000F92F96E9BB279395F695879577956795B6
:100AE000B795F111F8CFFAF4BB0F11F460FF1BC0FA
:100AF0006F5F7F4F8F4F9F4F16C0882311F096E98D
:100B000011C0772321F09EE8872F762F05C066233A
:100B100071F096E8862F70E060E02AF09A95660FF3
:100B2000771F881FDAF7880F9695879597F90895AC
:100B3000990F0008550FAA0BE0E8FEEF16161706EE
:100B4000E807F907C0F012161306E407F50798F056
:100B5000621B730B840B950B39F40A2661F0232B6F
:100B6000242B252B21F408950A2609F4A140A695EB
:100B70008FEF811D811D089597F99F6780E870E0D0
:100B800060E008959FEF80EC089500240A94161603
:100B9000170618060906089500240A94121613066B
:100BA000140605060895092E0394000C11F48823F9
:100BB00052F0BB0F40F4BF2B11F460FF04C06F5F15
:100BC0007F4F8F4F9F4F089557FD9058440F551FEB
:100BD00059F05F3F71F04795880F97FB991F61F0BF
:100BE0009F3F79F087950895121613061406551F36
:100BF000F2CF4695F1DF08C0161617061806991FA2
:100C0000F1CF86957105610508940895E894BB2796
:100C100066277727CB0197F908950E94980508F475
:100C20008FEF08950E9425060C94D3050E94C505F8
:100C300038F00E94CC0520F0952311F00C94BC05EF
:100C40000C94C20511240C9407060E94E40570F36D
:100C5000959FC1F3950F50E0551F629FF001729F61
:100C6000BB27F00DB11D639FAA27F00DB11DAA1F70
:100C7000649F6627B00DA11D661F829F2227B00DBD
:100C8000A11D621F739FB00DA11D621F839FA00D48
:100C9000611D221F749F3327A00D611D231F849F98
:100CA000600D211D822F762F6A2F11249F575040EF
:100CB0009AF0F1F088234AF0EE0FFF1FBB1F661F6A
:100CC000771F881F91505040A9F79E3F510580F033
:100CD0000C94BC050C9407065F3FE4F3983ED4F3F4
:100CE000869577956795B795F795E7959F5FC1F7D7
:100CF000FE2B880F911D9695879597F908950E9470
:100D00009805880B990B0895A1E21A2EAA1BBB1B0C
:100D1000FD010DC0AA1FBB1FEE1FFF1FA217B307C7
:100D2000E407F50720F0A21BB30BE40BF50B661FDD
:100D3000771F881F991F1A9469F7609570958095A1
:100D400090959B01AC01BD01CF010895EE0FFF1FEF
:0C0D50000590F491E02D0994F894FFCF79
:100D5C0000000000FF005F008C004C01BD009B00F8
:100D6C00AF006E616E00696E66006F76660078008B
:0A0D7C00207900207A000D0A000023
:00000001FF
